{
  "_format": "hh-sol-artifact-1",
  "contractName": "RentalAgreement",
  "sourceName": "contracts/RentalAgreement.sol",
  "abi": [
    {
      "inputs": [],
      "stateMutability": "nonpayable",
      "type": "constructor"
    },
    {
      "anonymous": false,
      "inputs": [
        {
          "indexed": true,
          "internalType": "uint256",
          "name": "id",
          "type": "uint256"
        },
        {
          "indexed": true,
          "internalType": "address",
          "name": "owner",
          "type": "address"
        },
        {
          "indexed": true,
          "internalType": "address",
          "name": "tenant",
          "type": "address"
        },
        {
          "indexed": false,
          "internalType": "string",
          "name": "propertyId",
          "type": "string"
        },
        {
          "indexed": false,
          "internalType": "uint256",
          "name": "monthlyRent",
          "type": "uint256"
        },
        {
          "indexed": false,
          "internalType": "string",
          "name": "ipfsCID",
          "type": "string"
        }
      ],
      "name": "AgreementCreated",
      "type": "event"
    },
    {
      "anonymous": false,
      "inputs": [
        {
          "indexed": true,
          "internalType": "uint256",
          "name": "id",
          "type": "uint256"
        }
      ],
      "name": "AgreementExpired",
      "type": "event"
    },
    {
      "anonymous": false,
      "inputs": [
        {
          "indexed": true,
          "internalType": "uint256",
          "name": "id",
          "type": "uint256"
        },
        {
          "indexed": false,
          "internalType": "address",
          "name": "terminatedBy",
          "type": "address"
        }
      ],
      "name": "AgreementTerminated",
      "type": "event"
    },
    {
      "inputs": [],
      "name": "admin",
      "outputs": [
        {
          "internalType": "address",
          "name": "",
          "type": "address"
        }
      ],
      "stateMutability": "view",
      "type": "function"
    },
    {
      "inputs": [],
      "name": "agreementCount",
      "outputs": [
        {
          "internalType": "uint256",
          "name": "",
          "type": "uint256"
        }
      ],
      "stateMutability": "view",
      "type": "function"
    },
    {
      "inputs": [
        {
          "internalType": "uint256",
          "name": "",
          "type": "uint256"
        }
      ],
      "name": "agreements",
      "outputs": [
        {
          "internalType": "uint256",
          "name": "id",
          "type": "uint256"
        },
        {
          "internalType": "address",
          "name": "owner",
          "type": "address"
        },
        {
          "internalType": "address",
          "name": "tenant",
          "type": "address"
        },
        {
          "internalType": "string",
          "name": "propertyId",
          "type": "string"
        },
        {
          "internalType": "uint256",
          "name": "monthlyRent",
          "type": "uint256"
        },
        {
          "internalType": "uint256",
          "name": "startDate",
          "type": "uint256"
        },
        {
          "internalType": "uint256",
          "name": "endDate",
          "type": "uint256"
        },
        {
          "internalType": "string",
          "name": "ipfsCID",
          "type": "string"
        },
        {
          "internalType": "enum RentalAgreement.AgreementStatus",
          "name": "status",
          "type": "uint8"
        },
        {
          "internalType": "uint256",
          "name": "createdAt",
          "type": "uint256"
        }
      ],
      "stateMutability": "view",
      "type": "function"
    },
    {
      "inputs": [
        {
          "internalType": "address",
          "name": "_tenant",
          "type": "address"
        },
        {
          "internalType": "string",
          "name": "_propertyId",
          "type": "string"
        },
        {
          "internalType": "uint256",
          "name": "_monthlyRent",
          "type": "uint256"
        },
        {
          "internalType": "uint256",
          "name": "_startDate",
          "type": "uint256"
        },
        {
          "internalType": "uint256",
          "name": "_endDate",
          "type": "uint256"
        },
        {
          "internalType": "string",
          "name": "_ipfsCID",
          "type": "string"
        }
      ],
      "name": "createAgreement",
      "outputs": [
        {
          "internalType": "uint256",
          "name": "",
          "type": "uint256"
        }
      ],
      "stateMutability": "nonpayable",
      "type": "function"
    },
    {
      "inputs": [
        {
          "internalType": "uint256",
          "name": "_id",
          "type": "uint256"
        }
      ],
      "name": "getAgreement",
      "outputs": [
        {
          "components": [
            {
              "internalType": "uint256",
              "name": "id",
              "type": "uint256"
            },
            {
              "internalType": "address",
              "name": "owner",
              "type": "address"
            },
            {
              "internalType": "address",
              "name": "tenant",
              "type": "address"
            },
            {
              "internalType": "string",
              "name": "propertyId",
              "type": "string"
            },
            {
              "internalType": "uint256",
              "name": "monthlyRent",
              "type": "uint256"
            },
            {
              "internalType": "uint256",
              "name": "startDate",
              "type": "uint256"
            },
            {
              "internalType": "uint256",
              "name": "endDate",
              "type": "uint256"
            },
            {
              "internalType": "string",
              "name": "ipfsCID",
              "type": "string"
            },
            {
              "internalType": "enum RentalAgreement.AgreementStatus",
              "name": "status",
              "type": "uint8"
            },
            {
              "internalType": "uint256",
              "name": "createdAt",
              "type": "uint256"
            }
          ],
          "internalType": "struct RentalAgreement.Agreement",
          "name": "",
          "type": "tuple"
        }
      ],
      "stateMutability": "view",
      "type": "function"
    },
    {
      "inputs": [
        {
          "internalType": "address",
          "name": "_user",
          "type": "address"
        }
      ],
      "name": "getUserAgreements",
      "outputs": [
        {
          "internalType": "uint256[]",
          "name": "",
          "type": "uint256[]"
        }
      ],
      "stateMutability": "view",
      "type": "function"
    },
    {
      "inputs": [
        {
          "internalType": "uint256",
          "name": "_id",
          "type": "uint256"
        }
      ],
      "name": "markExpired",
      "outputs": [],
      "stateMutability": "nonpayable",
      "type": "function"
    },
    {
      "inputs": [
        {
          "internalType": "uint256",
          "name": "_id",
          "type": "uint256"
        }
      ],
      "name": "terminateAgreement",
      "outputs": [],
      "stateMutability": "nonpayable",
      "type": "function"
    },
    {
      "inputs": [
        {
          "internalType": "address",
          "name": "",
          "type": "address"
        },
        {
          "internalType": "uint256",
          "name": "",
          "type": "uint256"
        }
      ],
      "name": "userAgreements",
      "outputs": [
        {
          "internalType": "uint256",
          "name": "",
          "type": "uint256"
        }
      ],
      "stateMutability": "view",
      "type": "function"
    },
    {
      "inputs": [
        {
          "internalType": "uint256",
          "name": "_id",
          "type": "uint256"
        },
        {
          "internalType": "string",
          "name": "_ipfsCID",
          "type": "string"
        }
      ],
      "name": "verifyAgreement",
      "outputs": [
        {
          "internalType": "bool",
          "name": "",
          "type": "bool"
        }
      ],
      "stateMutability": "view",
      "type": "function"
    }
  ],
  "bytecode": "0x608060405234801561001057600080fd5b50336000806101000a81548173ffffffffffffffffffffffffffffffffffffffff021916908373ffffffffffffffffffffffffffffffffffffffff160217905550612257806100606000396000f3fe608060405234801561001057600080fd5b506004361061009e5760003560e01c80639a026924116100665780639a0269241461017f578063adb9cae61461019b578063bb7bb278146101cb578063bd14de96146101e9578063f851a440146102225761009e565b80634c27984e146100a35780634f9f6fe6146100d35780634fb52e87146101035780636ed1ad5d1461013357806377fd00c514610163575b600080fd5b6100bd60048036038101906100b891906112a0565b610240565b6040516100ca91906112ef565b60405180910390f35b6100ed60048036038101906100e8919061130a565b610271565b6040516100fa919061153d565b60405180910390f35b61011d600480360381019061011891906115c4565b61052f565b60405161012a919061163f565b60405180910390f35b61014d6004803603810190610148919061165a565b6105d1565b60405161015a91906112ef565b60405180910390f35b61017d6004803603810190610178919061130a565b610b28565b005b6101996004803603810190610194919061130a565b610cae565b005b6101b560048036038101906101b09190611729565b610eff565b6040516101c29190611805565b60405180910390f35b6101d3610f96565b6040516101e091906112ef565b60405180910390f35b61020360048036038101906101fe919061130a565b610f9c565b6040516102199a9998979695949392919061188f565b60405180910390f35b61022a61114d565b6040516102379190611939565b60405180910390f35b6003602052816000526040600020818154811061025c57600080fd5b90600052602060002001600091509150505481565b610279611171565b8160008111801561028c57506001548111155b6102cb576040517f08c379a00000000000000000000000000000000000000000000000000000000081526004016102c2906119a0565b60405180910390fd5b6002600084815260200190815260200160002060405180610140016040529081600082015481526020016001820160009054906101000a900473ffffffffffffffffffffffffffffffffffffffff1673ffffffffffffffffffffffffffffffffffffffff1673ffffffffffffffffffffffffffffffffffffffff1681526020016002820160009054906101000a900473ffffffffffffffffffffffffffffffffffffffff1673ffffffffffffffffffffffffffffffffffffffff1673ffffffffffffffffffffffffffffffffffffffff1681526020016003820180546103b0906119ef565b80601f01602080910402602001604051908101604052809291908181526020018280546103dc906119ef565b80156104295780601f106103fe57610100808354040283529160200191610429565b820191906000526020600020905b81548152906001019060200180831161040c57829003601f168201915b50505050508152602001600482015481526020016005820154815260200160068201548152602001600782018054610460906119ef565b80601f016020809104026020016040519081016040528092919081815260200182805461048c906119ef565b80156104d95780601f106104ae576101008083540402835291602001916104d9565b820191906000526020600020905b8154815290600101906020018083116104bc57829003601f168201915b505050505081526020016008820160009054906101000a900460ff166003811115610507576105066113e5565b5b6003811115610519576105186113e5565b5b8152602001600982015481525050915050919050565b60008360008111801561054457506001548111155b610583576040517f08c379a000000000000000000000000000000000000000000000000000000000815260040161057a906119a0565b60405180910390fd5b8383604051610593929190611a5f565b6040518091039020600260008781526020019081526020016000206007016040516105be9190611b10565b6040518091039020149150509392505050565b60008073ffffffffffffffffffffffffffffffffffffffff168973ffffffffffffffffffffffffffffffffffffffff1603610641576040517f08c379a000000000000000000000000000000000000000000000000000000000815260040161063890611b73565b60405180910390fd5b3373ffffffffffffffffffffffffffffffffffffffff168973ffffffffffffffffffffffffffffffffffffffff16036106af576040517f08c379a00000000000000000000000000000000000000000000000000000000081526004016106a690611bdf565b60405180910390fd5b600086116106f2576040517f08c379a00000000000000000000000000000000000000000000000000000000081526004016106e990611c4b565b60405180910390fd5b848411610734576040517f08c379a000000000000000000000000000000000000000000000000000000000815260040161072b90611cb7565b60405180910390fd5b6000838390501161077a576040517f08c379a000000000000000000000000000000000000000000000000000000000815260040161077190611d23565b60405180910390fd5b6001600081548092919061078d90611d72565b919050555060405180610140016040528060015481526020013373ffffffffffffffffffffffffffffffffffffffff1681526020018a73ffffffffffffffffffffffffffffffffffffffff16815260200189898080601f016020809104026020016040519081016040528093929190818152602001838380828437600081840152601f19601f82011690508083019250505050505050815260200187815260200186815260200185815260200184848080601f016020809104026020016040519081016040528093929190818152602001838380828437600081840152601f19601f82011690508083019250505050505050815260200160016003811115610898576108976113e5565b5b8152602001428152506002600060015481526020019081526020016000206000820151816000015560208201518160010160006101000a81548173ffffffffffffffffffffffffffffffffffffffff021916908373ffffffffffffffffffffffffffffffffffffffff16021790555060408201518160020160006101000a81548173ffffffffffffffffffffffffffffffffffffffff021916908373ffffffffffffffffffffffffffffffffffffffff16021790555060608201518160030190816109639190611f95565b506080820151816004015560a0820151816005015560c0820151816006015560e08201518160070190816109979190611f95565b506101008201518160080160006101000a81548160ff021916908360038111156109c4576109c36113e5565b5b02179055506101208201518160090155905050600360003373ffffffffffffffffffffffffffffffffffffffff1673ffffffffffffffffffffffffffffffffffffffff1681526020019081526020016000206001549080600181540180825580915050600190039060005260206000200160009091909190915055600360008a73ffffffffffffffffffffffffffffffffffffffff1673ffffffffffffffffffffffffffffffffffffffff16815260200190815260200160002060015490806001815401808255809150506001900390600052602060002001600090919091909150558873ffffffffffffffffffffffffffffffffffffffff163373ffffffffffffffffffffffffffffffffffffffff166001547ff9da87f08d014176e68391b89f4eaaf885521aeeb26ca0e6b1b9e61ea0407be08b8b8b8989604051610b0f959493929190612094565b60405180910390a4600154905098975050505050505050565b80600081118015610b3b57506001548111155b610b7a576040517f08c379a0000000000000000000000000000000000000000000000000000000008152600401610b71906119a0565b60405180910390fd5b600060026000848152602001908152602001600020905060016003811115610ba557610ba46113e5565b5b8160080160009054906101000a900460ff166003811115610bc957610bc86113e5565b5b14610c09576040517f08c379a0000000000000000000000000000000000000000000000000000000008152600401610c0090612129565b60405180910390fd5b80600601544211610c4f576040517f08c379a0000000000000000000000000000000000000000000000000000000008152600401610c4690612195565b60405180910390fd5b60038160080160006101000a81548160ff02191690836003811115610c7757610c766113e5565b5b0217905550827f560175b687427d26d0da6087d18eb93812159c0c0b5e882d3d7d3dec868fd71060405160405180910390a2505050565b80600081118015610cc157506001548111155b610d00576040517f08c379a0000000000000000000000000000000000000000000000000000000008152600401610cf7906119a0565b60405180910390fd5b8160006002600083815260200190815260200160002090508060010160009054906101000a900473ffffffffffffffffffffffffffffffffffffffff1673ffffffffffffffffffffffffffffffffffffffff163373ffffffffffffffffffffffffffffffffffffffff161480610dc557508060020160009054906101000a900473ffffffffffffffffffffffffffffffffffffffff1673ffffffffffffffffffffffffffffffffffffffff163373ffffffffffffffffffffffffffffffffffffffff16145b610e04576040517f08c379a0000000000000000000000000000000000000000000000000000000008152600401610dfb90612201565b60405180910390fd5b600060026000868152602001908152602001600020905060016003811115610e2f57610e2e6113e5565b5b8160080160009054906101000a900460ff166003811115610e5357610e526113e5565b5b14610e93576040517f08c379a0000000000000000000000000000000000000000000000000000000008152600401610e8a90612129565b60405180910390fd5b60028160080160006101000a81548160ff02191690836003811115610ebb57610eba6113e5565b5b0217905550847f9042e126b5d7479ce8cb0f645dbd9ac62c6763a988bbd3b8417cb4646601b8d533604051610ef09190611939565b60405180910390a25050505050565b6060600360008373ffffffffffffffffffffffffffffffffffffffff1673ffffffffffffffffffffffffffffffffffffffff168152602001908152602001600020805480602002602001604051908101604052809291908181526020018280548015610f8a57602002820191906000526020600020905b815481526020019060010190808311610f76575b50505050509050919050565b60015481565b60026020528060005260406000206000915090508060000154908060010160009054906101000a900473ffffffffffffffffffffffffffffffffffffffff16908060020160009054906101000a900473ffffffffffffffffffffffffffffffffffffffff1690806003018054611011906119ef565b80601f016020809104026020016040519081016040528092919081815260200182805461103d906119ef565b801561108a5780601f1061105f5761010080835404028352916020019161108a565b820191906000526020600020905b81548152906001019060200180831161106d57829003601f168201915b5050505050908060040154908060050154908060060154908060070180546110b1906119ef565b80601f01602080910402602001604051908101604052809291908181526020018280546110dd906119ef565b801561112a5780601f106110ff5761010080835404028352916020019161112a565b820191906000526020600020905b81548152906001019060200180831161110d57829003601f168201915b5050505050908060080160009054906101000a900460ff1690806009015490508a565b60008054906101000a900473ffffffffffffffffffffffffffffffffffffffff1681565b60405180610140016040528060008152602001600073ffffffffffffffffffffffffffffffffffffffff168152602001600073ffffffffffffffffffffffffffffffffffffffff1681526020016060815260200160008152602001600081526020016000815260200160608152602001600060038111156111f5576111f46113e5565b5b8152602001600081525090565b600080fd5b600080fd5b600073ffffffffffffffffffffffffffffffffffffffff82169050919050565b60006112378261120c565b9050919050565b6112478161122c565b811461125257600080fd5b50565b6000813590506112648161123e565b92915050565b6000819050919050565b61127d8161126a565b811461128857600080fd5b50565b60008135905061129a81611274565b92915050565b600080604083850312156112b7576112b6611202565b5b60006112c585828601611255565b92505060206112d68582860161128b565b9150509250929050565b6112e98161126a565b82525050565b600060208201905061130460008301846112e0565b92915050565b6000602082840312156113205761131f611202565b5b600061132e8482850161128b565b91505092915050565b6113408161126a565b82525050565b61134f8161122c565b82525050565b600081519050919050565b600082825260208201905092915050565b60005b8381101561138f578082015181840152602081019050611374565b60008484015250505050565b6000601f19601f8301169050919050565b60006113b782611355565b6113c18185611360565b93506113d1818560208601611371565b6113da8161139b565b840191505092915050565b7f4e487b7100000000000000000000000000000000000000000000000000000000600052602160045260246000fd5b60048110611425576114246113e5565b5b50565b600081905061143682611414565b919050565b600061144682611428565b9050919050565b6114568161143b565b82525050565b6000610140830160008301516114756000860182611337565b5060208301516114886020860182611346565b50604083015161149b6040860182611346565b50606083015184820360608601526114b382826113ac565b91505060808301516114c86080860182611337565b5060a08301516114db60a0860182611337565b5060c08301516114ee60c0860182611337565b5060e083015184820360e086015261150682826113ac565b91505061010083015161151d61010086018261144d565b50610120830151611532610120860182611337565b508091505092915050565b60006020820190508181036000830152611557818461145c565b905092915050565b600080fd5b600080fd5b600080fd5b60008083601f8401126115845761158361155f565b5b8235905067ffffffffffffffff8111156115a1576115a0611564565b5b6020830191508360018202830111156115bd576115bc611569565b5b9250929050565b6000806000604084860312156115dd576115dc611202565b5b60006115eb8682870161128b565b935050602084013567ffffffffffffffff81111561160c5761160b611207565b5b6116188682870161156e565b92509250509250925092565b60008115159050919050565b61163981611624565b82525050565b60006020820190506116546000830184611630565b92915050565b60008060008060008060008060c0898b03121561167a57611679611202565b5b60006116888b828c01611255565b985050602089013567ffffffffffffffff8111156116a9576116a8611207565b5b6116b58b828c0161156e565b975097505060406116c88b828c0161128b565b95505060606116d98b828c0161128b565b94505060806116ea8b828c0161128b565b93505060a089013567ffffffffffffffff81111561170b5761170a611207565b5b6117178b828c0161156e565b92509250509295985092959890939650565b60006020828403121561173f5761173e611202565b5b600061174d84828501611255565b91505092915050565b600081519050919050565b600082825260208201905092915050565b6000819050602082019050919050565b600061178e8383611337565b60208301905092915050565b6000602082019050919050565b60006117b282611756565b6117bc8185611761565b93506117c783611772565b8060005b838110156117f85781516117df8882611782565b97506117ea8361179a565b9250506001810190506117cb565b5085935050505092915050565b6000602082019050818103600083015261181f81846117a7565b905092915050565b6118308161122c565b82525050565b600082825260208201905092915050565b600061185282611355565b61185c8185611836565b935061186c818560208601611371565b6118758161139b565b840191505092915050565b6118898161143b565b82525050565b6000610140820190506118a5600083018d6112e0565b6118b2602083018c611827565b6118bf604083018b611827565b81810360608301526118d1818a611847565b90506118e060808301896112e0565b6118ed60a08301886112e0565b6118fa60c08301876112e0565b81810360e083015261190c8186611847565b905061191c610100830185611880565b61192a6101208301846112e0565b9b9a5050505050505050505050565b600060208201905061194e6000830184611827565b92915050565b7f41677265656d656e7420646f6573206e6f742065786973740000000000000000600082015250565b600061198a601883611836565b915061199582611954565b602082019050919050565b600060208201905081810360008301526119b98161197d565b9050919050565b7f4e487b7100000000000000000000000000000000000000000000000000000000600052602260045260246000fd5b60006002820490506001821680611a0757607f821691505b602082108103611a1a57611a196119c0565b5b50919050565b600081905092915050565b82818337600083830152505050565b6000611a468385611a20565b9350611a53838584611a2b565b82840190509392505050565b6000611a6c828486611a3a565b91508190509392505050565b60008190508160005260206000209050919050565b60008154611a9a816119ef565b611aa48186611a20565b94506001821660008114611abf5760018114611ad457611b07565b60ff1983168652811515820286019350611b07565b611add85611a78565b60005b83811015611aff57815481890152600182019150602081019050611ae0565b838801955050505b50505092915050565b6000611b1c8284611a8d565b915081905092915050565b7f496e76616c69642074656e616e74206164647265737300000000000000000000600082015250565b6000611b5d601683611836565b9150611b6882611b27565b602082019050919050565b60006020820190508181036000830152611b8c81611b50565b9050919050565b7f4f776e65722063616e6e6f742062652074656e616e7400000000000000000000600082015250565b6000611bc9601683611836565b9150611bd482611b93565b602082019050919050565b60006020820190508181036000830152611bf881611bbc565b9050919050565b7f52656e74206d757374206265203e203000000000000000000000000000000000600082015250565b6000611c35601083611836565b9150611c4082611bff565b602082019050919050565b60006020820190508181036000830152611c6481611c28565b9050919050565b7f496e76616c696420646174652072616e67650000000000000000000000000000600082015250565b6000611ca1601283611836565b9150611cac82611c6b565b602082019050919050565b60006020820190508181036000830152611cd081611c94565b9050919050565b7f4950465320434944207265717569726564000000000000000000000000000000600082015250565b6000611d0d601183611836565b9150611d1882611cd7565b602082019050919050565b60006020820190508181036000830152611d3c81611d00565b9050919050565b7f4e487b7100000000000000000000000000000000000000000000000000000000600052601160045260246000fd5b6000611d7d8261126a565b91507fffffffffffffffffffffffffffffffffffffffffffffffffffffffffffffffff8203611daf57611dae611d43565b5b600182019050919050565b7f4e487b7100000000000000000000000000000000000000000000000000000000600052604160045260246000fd5b60008190508160005260206000209050919050565b60006020601f8301049050919050565b600082821b905092915050565b600060088302611e4b7fffffffffffffffffffffffffffffffffffffffffffffffffffffffffffffffff82611e0e565b611e558683611e0e565b95508019841693508086168417925050509392505050565b6000819050919050565b6000611e92611e8d611e888461126a565b611e6d565b61126a565b9050919050565b6000819050919050565b611eac83611e77565b611ec0611eb882611e99565b848454611e1b565b825550505050565b600090565b611ed5611ec8565b611ee0818484611ea3565b505050565b5b81811015611f0457611ef9600082611ecd565b600181019050611ee6565b5050565b601f821115611f4957611f1a81611de9565b611f2384611dfe565b81016020851015611f32578190505b611f46611f3e85611dfe565b830182611ee5565b50505b505050565b600082821c905092915050565b6000611f6c60001984600802611f4e565b1980831691505092915050565b6000611f858383611f5b565b9150826002028217905092915050565b611f9e82611355565b67ffffffffffffffff811115611fb757611fb6611dba565b5b611fc182546119ef565b611fcc828285611f08565b600060209050601f831160018114611fff5760008415611fed578287015190505b611ff78582611f79565b86555061205f565b601f19841661200d86611de9565b60005b8281101561203557848901518255600182019150602085019450602081019050612010565b86831015612052578489015161204e601f891682611f5b565b8355505b6001600288020188555050505b505050505050565b60006120738385611836565b9350612080838584611a2b565b6120898361139b565b840190509392505050565b600060608201905081810360008301526120af818789612067565b90506120be60208301866112e0565b81810360408301526120d1818486612067565b90509695505050505050565b7f41677265656d656e74206e6f7420616374697665000000000000000000000000600082015250565b6000612113601483611836565b915061211e826120dd565b602082019050919050565b6000602082019050818103600083015261214281612106565b9050919050565b7f41677265656d656e7420686173206e6f74206578706972656420796574000000600082015250565b600061217f601d83611836565b915061218a82612149565b602082019050919050565b600060208201905081810360008301526121ae81612172565b9050919050565b7f4e6f74206120706172747920746f20746869732061677265656d656e74000000600082015250565b60006121eb601d83611836565b91506121f6826121b5565b602082019050919050565b6000602082019050818103600083015261221a816121de565b905091905056fea26469706673582212209f6e1cf302d7ebfb5202dfbadddb1fe13d2ee5ebf7d2a53ff39c0827b011b36b64736f6c63430008130033",
  "linkReferences": {},
  "deployedLinkReferences": {}
}